{
  "_format": "hh-sol-artifact-1",
  "contractName": "gasChallenge",
  "sourceName": "contracts/gasChallenge.sol",
  "abi": [
    {
      "inputs": [],
      "name": "getSumOfArray",
      "outputs": [
        {
          "internalType": "uint256",
          "name": "",
          "type": "uint256"
        }
      ],
      "stateMutability": "view",
      "type": "function"
    },
    {
      "inputs": [],
      "name": "notOptimizedFunction",
      "outputs": [],
      "stateMutability": "nonpayable",
      "type": "function"
    },
    {
      "inputs": [],
      "name": "optimizedFunction",
      "outputs": [],
      "stateMutability": "nonpayable",
      "type": "function"
    }
  ],
  "bytecode": "0x6080604052604051806101400160405280600160ff168152602001600260ff168152602001600360ff168152602001600460ff168152602001600560ff168152602001600660ff168152602001600760ff168152602001600860ff168152602001600960ff168152602001600a60ff16815250600090600a610082929190610095565b5034801561008f57600080fd5b5061014c565b82600a601f0160209004810192821561011e5791602002820160005b838211156100ef57835183826101000a81548160ff021916908360ff16021790555092602001926001016020816000010492830192600103026100b1565b801561011c5782816101000a81549060ff02191690556001016020816000010492830192600103026100ef565b505b50905061012b919061012f565b5090565b5b80821115610148576000816000905550600101610130565b5090565b6103788061015b6000396000f3fe608060405234801561001057600080fd5b50600436106100415760003560e01c806368b5f223146100465780637ce418941461005057806380d2c8031461005a575b600080fd5b61004e610078565b005b6100586100cf565b005b6100626100ec565b60405161006f919061024d565b60405180910390f35b60005b600a8110156100cc5760008082600a811061009957610098610268565b5b602091828204019190066101000a81548160ff021916908360ff16021790555080806100c4906102c6565b91505061007b565b50565b6100d761015a565b80600090600a6100e892919061017d565b5050565b600080600090506000600a905060005b8181101561015157600081600a811061011857610117610268565b5b602091828204019190069054906101000a900460ff1660ff168361013c919061030e565b92508080610149906102c6565b9150506100fc565b50819250505090565b604051806101400160405280600a90602082028036833780820191505090505090565b82600a601f016020900481019282156102065791602002820160005b838211156101d757835183826101000a81548160ff021916908360ff1602179055509260200192600101602081600001049283019260010302610199565b80156102045782816101000a81549060ff02191690556001016020816000010492830192600103026101d7565b505b5090506102139190610217565b5090565b5b80821115610230576000816000905550600101610218565b5090565b6000819050919050565b61024781610234565b82525050565b6000602082019050610262600083018461023e565b92915050565b7f4e487b7100000000000000000000000000000000000000000000000000000000600052603260045260246000fd5b7f4e487b7100000000000000000000000000000000000000000000000000000000600052601160045260246000fd5b60006102d182610234565b91507fffffffffffffffffffffffffffffffffffffffffffffffffffffffffffffffff820361030357610302610297565b5b600182019050919050565b600061031982610234565b915061032483610234565b925082820190508082111561033c5761033b610297565b5b9291505056fea26469706673582212206952a8d22a592a2984a4faf564335c7dfaa53c410742d6a6d1a5d98963fa175164736f6c63430008120033",
  "linkReferences": {},
  "deployedLinkReferences": {}
}